S00E00007375726665722E737265637F
S11300000C944A000C94E3020C94F9020C946700DB
S11300100C9467000C9467000C9467000C946700C0
S11300200C9467000C9467000C9467000C946700B0
S11300300C9467000C942A020C9467000C946700DB
S11300400C94AE020C9467000C9467000C94670047
S11300500C9415030C9467000C941F030C94670014
S11300600C9467000C9467000C9467000C94670070
S11300700C9467000C9467000C94670051015401C0
S113008057015A015D0160016301660169016C0158
S11300906F01720111241FBECFEFD0E1DEBFCDBFCF
S11300A011E0A0E0B1E0E4EDF6E002C005900D92AD
S11300B0A230B107D9F721E0A2E0B1E001C01D925E
S11300C0A537B207E1F70E94D4010C9468030C949D
S11300D0000088E48093B8000895ECEBF0E010820F
S11300E094EA908390819923ECF79091B900987FDA
S11300F09830A1F48093BB0084E88093BC00ECEBBF
S1130100F0E080818823ECF79091B900987F9831D2
S113011039F081E0903429F480E0089581E0089575
S113012080E008958093BB0084E88093BC00ECEBEE
S1130130F0E080818823ECF79091B900987F81E00A
S1130140983209F480E0089584EC8093BC00ECEBD1
S1130150F0E080818823ECF78091BB00089584E867
S11301608093BC00ECEBF0E080818823ECF7809175
S1130170BB00089584E98093BC0008950F931F93F6
S1130180CF93DF938C01EB0180E90E946D0080E046
S11301900E94920081E90E946D000E94A400F8016F
S11301A080830E94AF00888384E98093BC00DF9140
S11301B0CF911F910F91089590916701292F30E0FD
S11301C0E0916601B9016F5F7F4F4E2F50E06417D5
S11301D0750799F0E11102C0933689F0F901EE5FD9
S11301E0FE4F80839F5F943620F49093670181E0F3
S11301F008951092670181E0089580E0089580E0F9
S11302000895E091660120916701E21799F0F0E00A
S1130210EE5FFE4F2081FC012083809166018F5F99
S1130220843620F48093660181E00895109266017B
S113023081E0089580E0089578948BB18C608BB947
S11302408FE08093690083E08DBB08958EEF81B9C0
S11302508BE084B9789484E294EF9093890080933E
S1130260880082E080936F008CE0809381008AEFA5
S113027087BDEEE6F0E080818260808384B5826091
S113028084BD85B5836085BD0895643078F565B90E
S113029090E08C30910548F5FC01E25CFF4F0C9432
S11302A062038CEF82B922C088E482B91FC08EEA4F
S11302B082B91CC08EEC82B919C08AE582B916C015
S11302C086ED82B913C086EF82B910C08CE582B97D
S11302D00DC08EEF82B90AC08EED82B907C084EBDF
S11302E082B904C082E082B901C012B8461302C0C8
S11302F02B9A08952B980895982F9695613041F084
S113030028F06230A1F06330E9F146C08AE0089534
S11303108DEC989F812D1124869586958695880F5E
S1130320282F220F220F820F981B892F08959436AD
S1130330A0F42DEC929F812D1124869586958695A7
S1130340829F212D1124269526952695220F322F42
S1130350330F330F230F821709F18DEC989F912DE2
S11303601124969596959695989F812D112486959E
S113037086958695880F282F220F220F820F981BAF
S1130380892F089540FD0CC089E2989F812D112486
S113039082958F7039F008958CE008958CE008956B
S11303A08BE008958CE008950E944B030E9469003D
S11303B00E9426010E941C018EED90E00E946D00B7
S11303C087E090E00E94920080E190E00E94920019
S11303D00E94BA008EED90E00E946D0080E090E0F3
S11303E00E9492008EE190E00E9492000E94BA0066
S11303F08EED90E00E946D0081E090E00E949200FA
S11304008EE190E00E9492000E94BA008EED90E08E
S11304100E946D0082E090E00E9492008EE090E0E5
S11304200E9492000E94BA002FEF88E09DE32150C1
S113043080409040E1F700C0000080916A010E9472
S11304405703809169010E945703809168010E94BB
S11304505703EACF1F920F920FB60F921124EF9217
S1130460FF920F931F932F933F934F935F936F9339
S11304707F938F939F93AF93BF93CF93DF93EF9328
S1130480FF936CE671E08EE691E00E94BE008091DD
S11304906E0180936D01282F220F90916C01991F9A
S11304A09927991F922B90936E0188234CF4809185
S11304B07401816080937401919590936E012DC0B5
S11304C0809174018E7F8093740127C06C2F6E1904
S11304D04091740180916E010E947C018993C01740
S11304E0D107A1F78EED90E00E946D0080E090E0CE
S11304F00E9492008FED90E00E946D000E94A40083
S113050080936A010E94A400809369010E94AF0055
S1130510809368010E94BA000AC00F2EFFE6EF2EF6
S1130520F1E0FF2EF02D03E711E0E701CFCFFF91BB
S1130530EF91DF91CF91BF91AF919F918F917F9177
S11305406F915F914F913F912F911F910F91FF9068
S1130550EF900F900FBE0F901F9018951F920F925F
S11305600FB60F9211242F933F934F935F936F9382
S11305707F938F939F93AF93BF93EF93FF93609178
S11305807301E62FF0E0E159FE4F409100018081B4
S11305900E9445018091730190E0019683709078E8
S11305A080937301FF91EF91BF91AF919F918F91D0
S11305B07F916F915F914F913F912F910F900FBE5B
S11305C00F901F9018951F920F920FB60F9211243F
S11305D08F9380916F018F5F8A3019F080936F0140
S11305E002C010926F018F910F900FBE0F901F9059
S11305F018951F920F920FB60F9211248F93EF93B9
S1130600FF9380916F01811103C08AE080936F0191
S1130610EFE6F1E0808181508083FF91EF918F912B
S11306200F900FBE0F901F9018951F920F920FB648
S11306300F9211240F900FBE0F901F9018951F92C8
S11306400F920FB60F9211242F933F934F935F9302
S11306506F937F938F939F93AF93BF93EF93FF9386
S11306608BE691E00E940101882321F080916B01C7
S11306708093C600FF91EF91BF91AF919F918F91AD
S11306807F916F915F914F913F912F910F900FBE8A
S11306900F901F9018958EE28093C2001092C500AF
S11306A087E68093C40088ED8093C10008959091FB
S11306B0C00095FD03C00E94DC0008958093C6002D
S11306C081E00895EE0FFF1F0590F491E02D099449
S10706D0F894FFCFC8
S10506D401001F
S9030000FC
